:100000000C9434000C9451000C9451000C94510049
:100010000C9451000C9451000C9451000C9451001C
:100020000C9451000C9451000C9451000C9451000C
:100030000C9451000C9451000C9451000C945100FC
:100040000C9499010C9451000C9451000C945100A3
:100050000C9451000C9451000C9451000C945100DC
:100060000C9451000C94510011241FBECFEFD8E026
:10007000DEBFCDBF11E0A0E0B1E0E8E9FAE002C0E8
:1000800005900D92A430B107D9F721E0A4E0B1E0CA
:1000900001C01D92A731B207E1F70E94AA010C949A
:1000A0004A050C9400009093C5008093C400E1ECD5
:1000B000F0E0808188608083E2ECF0E080818660FF
:1000C000808308958093C6000895ECE7F0E0808176
:1000D0008064808386EC80937A0008958F929F924B
:1000E000AF92BF92CF92DF92EF92FF920F931F9346
:1000F000CF93DF936B017C0120E030E040E251E4DC
:100100000E9456034B015C0120E030E040E85FE3D1
:100110000E9451038823FCF420E030E04AE754E4D5
:10012000C701B6010E94B5040E94C803CB0168EE66
:1001300073E00E94220560597F4F70931001609315
:100140000F01282F392F64E670E00E942205CB01B1
:10015000C0E0D0E03AC020E030E040E251E4C50128
:10016000B4010E94510388237CF420E030E048EC85
:1001700052E4C701B6010E94B5046B017C01C0E0E6
:10018000D0E001E010E04FC020E030E048EC52E465
:10019000C501B4010E94510388230CF040C020E047
:1001A00030E040E251E4C701B6010E94B5046B01A2
:1001B0007C01C1E0D0E000E010E035C0605B7F4F23
:1001C000709312016093110106C0805C9F4F909361
:1001D000120180931101822F932F64E670E00E9438
:1001E00022059C016AE070E00E942205219739F403
:1001F000605D7F4F709314016093130106C0605ED1
:100200007F4F7093140160931301C9016AE070E09D
:100210000E94220590931601809315011FC0C0E033
:10022000D0E000E010E0C701B6010E94C803CB0196
:1002300068EE73E00E942205605A7F4F70931001B0
:1002400060930F01282F392F64E670E00E94220589
:10025000CB010130110509F0B8CFB0CFDF91CF91BC
:100260001F910F91FF90EF90DF90CF90BF90AF90D4
:100270009F908F900895ECE7F0E09081108290813C
:10028000892B8083808180648083EAE7F0E080812D
:1002900080648083808186FDFDCF8091780090917D
:1002A00079000895CF92DF92EF92FF92CF93DF9380
:1002B000EC01C0900001D0900101E0900201F090AB
:1002C000030120E030E040E85AE3C701B6010E9494
:1002D000B504609308017093090180930A0190931B
:1002E0000B01BE0180E090E00E94FE039B01AC0187
:1002F000C701B6010E94B50420E030E040E85AE3AF
:100300000E94B504DF91CF91FF90EF90DF90CF90E6
:1003100008950E94B504089585B5856085BD16BC15
:10032000EEE6F0E0808181608083789410920E0187
:1003300008951F920F920FB60F9211248F93809100
:100340000E018F5F80930E018F910F900FBE0F9063
:100350001F901895CF93DF93CDB7DEB728970FB6D0
:10036000F894DEBF0FBECDBF87E690E00E94530039
:100370000E946500259A0E948C0107E111E00F2E72
:10038000FFE0CF2EF1E0DF2EF02D0F2EFAE74F2EFB
:10039000F02D0F2EF4EF5F2EF02D772473946894D8
:1003A000662465F883E00E943B010E9452012DEC17
:1003B0003CEC4CE45EE30E94E40224EF34E045E3CD
:1003C00051E40E94B50469837A838B839C8380E027
:1003D0000E943B010E9452012EE032EF4EE65FE3A5
:1003E0000E9456036D837E838F8398879B01AC01A7
:1003F00069817A818B819C810E9489014B015C011A
:1004000080910E01843F18F1C501B4010E946E0075
:100410000F2EF0E5EF2EF12CF02D14C0F1018081AC
:10042000F2E02F0E311C0E9462008FE19EE40197E2
:10043000F1F700C000002016310681F791E0E91ABB
:10044000F10811F01601EACF10920E014DC0809113
:100450000E018A3728F16D817E818F8198850E94F7
:100460006E000F2EF0E5EF2EF12CF02D14C0F101EF
:100470008081F2E02F0E311C0E9462008FE19EE429
:100480000197F1F700C000002016310681F791E0D6
:10049000E91AF10811F01601EACF50920E0124C0BA
:1004A00069817A818B819C810E946E000F2EF0E51C
:1004B000EF2EF12CF02D14C0F1018081F2E02F0E0F
:1004C000311C0E9462008FE19EE40197F1F700C0A9
:1004D00000002016310681F791E0E91AF10811F0C9
:1004E0001601EACF40920E0120E030E048E050E4EF
:1004F000C501B4010E945103882384F480910E0148
:100500008D3308F44FCF86B58A3F08F44BCF85B1C1
:10051000862585B916BC10920E0144CFF72C20E039
:1005200030E048E050E4C501B4010E94B0048823E3
:100530000CF4F12CFF20E1F020E030E048E850E43A
:10054000C501B4010E945103880F880B872181F0F7
:1005500080910E018F3108F425CF86B58A3F08F4CB
:1005600021CF85B1862585B916BC10920E011ACF10
:10057000F72C20E030E048E850E4C501B4010E94C7
:10058000B00488230CF4F12CFF20E1F026EF38E2D0
:100590004CEC50E4C501B4010E945103880F880B54
:1005A000872181F080910E018F3008F4FBCE86B553
:1005B0008A3F08F4F7CE85B1862585B916BC10921E
:1005C0000E01F0CE2D9AEECE5058BB27AA270E94DE
:1005D000FC020C9476040E94680438F00E946F04B8
:1005E00020F039F49F3F19F426F40C9465040EF4BE
:1005F000E095E7FB0C945F04E92F0E94870458F311
:10060000BA17620773078407950720F079F4A6F5F7
:100610000C94A9040EF4E0950B2EBA2FA02D0B011B
:10062000B90190010C01CA01A0011124FF27591B37
:1006300099F0593F50F4503E68F11A16F040A22F3D
:10064000232F342F4427585FF3CF469537952795AE
:10065000A795F0405395C9F77EF41F16BA0B620BAD
:10066000730B840BBAF09150A1F0FF0FBB1F661FF4
:10067000771F881FC2F70EC0BA0F621F731F841F37
:1006800048F4879577956795B795F7959E3F08F05D
:10069000B0CF9395880F08F09927EE0F979587951F
:1006A00008950E943B0408F481E008950E946A03C3
:1006B0000C9476040E946F0458F00E94680440F085
:1006C00029F45F3F29F00C945F0451110C94AA04A3
:1006D0000C9465040E94870468F39923B1F35523B1
:1006E00091F3951B550BBB27AA2762177307840745
:1006F00038F09F5F5F4F220F331F441FAA1FA9F3DB
:1007000035D00E2E3AF0E0E832D091505040E695C8
:10071000001CCAF72BD0FE2F29D0660F771F881F29
:10072000BB1F261737074807AB07B0E809F0BB0B1C
:10073000802DBF01FF2793585F4F3AF09E3F510530
:1007400078F00C945F040C94AA045F3FE4F3983EA5
:10075000D4F3869577956795B795F7959F5FC9F719
:10076000880F911D9695879597F90895E1E0660F9A
:10077000771F881FBB1F621773078407BA0720F013
:10078000621B730B840BBA0BEE1F88F7E09508957C
:100790000E94CF036894B1110C94AA0408950E949A
:1007A0008F0488F09F5798F0B92F9927B751B0F070
:1007B000E1F0660F771F881F991F1AF0BA95C9F7E5
:1007C00014C0B13091F00E94A904B1E008950C94D6
:1007D000A904672F782F8827B85F39F0B93FCCF389
:1007E000869577956795B395D9F73EF49095809562
:1007F000709561957F4F8F4F9F4F0895E89409C082
:1008000097FB3EF490958095709561957F4F8F4F43
:100810009F4F9923A9F0F92F96E9BB279395F69559
:10082000879577956795B795F111F8CFFAF4BB0FD7
:1008300011F460FF1BC06F5F7F4F8F4F9F4F16C03B
:10084000882311F096E911C0772321F09EE8872FC5
:10085000762F05C0662371F096E8862F70E060E081
:100860002AF09A95660F771F881FDAF7880F9695FA
:10087000879597F90895990F0008550FAA0BE0E89E
:10088000FEEF16161706E807F907C0F01216130652
:10089000E407F50798F0621B730B840B950B39F492
:1008A0000A2661F0232B242B252B21F408950A26F8
:1008B00009F4A140A6958FEF811D811D089597F938
:1008C0009F6780E870E060E008959FEF80EC0895F6
:1008D00000240A941616170618060906089500241F
:1008E0000A9412161306140605060895092E039499
:1008F000000C11F4882352F0BB0F40F4BF2B11F40D
:1009000060FF04C06F5F7F4F8F4F9F4F089557FD6B
:100910009058440F551F59F05F3F71F04795880F6D
:1009200097FB991F61F09F3F79F087950895121604
:1009300013061406551FF2CF4695F1DF08C01616B0
:1009400017061806991FF1CF869571056105089461
:100950000895E894BB2766277727CB0197F9089578
:100960000E943B0408F48FEF08950E94C8040C9481
:1009700076040E94680438F00E946F0420F09523EA
:1009800011F00C945F040C94650411240C94AA04D7
:100990000E94870470F3959FC1F3950F50E0551F97
:1009A000629FF001729FBB27F00DB11D639FAA27C4
:1009B000F00DB11DAA1F649F6627B00DA11D661F13
:1009C000829F2227B00DA11D621F739FB00DA11D34
:1009D000621F839FA00D611D221F749F3327A00DEE
:1009E000611D231F849F600D211D822F762F6A2F8A
:1009F00011249F5750409AF0F1F088234AF0EE0FEF
:100A0000FF1FBB1F661F771F881F91505040A9F71B
:100A10009E3F510580F00C945F040C94AA045F3F44
:100A2000E4F3983ED4F3869577956795B795F79557
:100A3000E7959F5FC1F7FE2B880F911D96958795CF
:100A400097F9089597FB072E16F4009407D077FDC9
:100A500009D00E94360507FC05D03EF4909581959B
:100A60009F4F0895709561957F4F0895AA1BBB1BFA
:100A700051E107C0AA1FBB1FA617B70710F0A61B9E
:100A8000B70B881F991F5A95A9F780959095BC01BF
:080A9000CD010895F894FFCF99
:040A98000000A0407A
:00000001FF
